{
  "contractName": "Balls",
  "abi": [
    {
      "anonymous": false,
      "inputs": [
        {
          "indexed": true,
          "internalType": "address",
          "name": "_from",
          "type": "address"
        },
        {
          "indexed": true,
          "internalType": "address",
          "name": "_to",
          "type": "address"
        },
        {
          "indexed": false,
          "internalType": "uint256",
          "name": "_value",
          "type": "uint256"
        }
      ],
      "name": "TransferBall",
      "type": "event"
    },
    {
      "constant": true,
      "inputs": [
        {
          "internalType": "address",
          "name": "",
          "type": "address"
        }
      ],
      "name": "balances",
      "outputs": [
        {
          "internalType": "uint256",
          "name": "",
          "type": "uint256"
        }
      ],
      "payable": false,
      "stateMutability": "view",
      "type": "function"
    },
    {
      "constant": true,
      "inputs": [],
      "name": "owner",
      "outputs": [
        {
          "internalType": "address",
          "name": "",
          "type": "address"
        }
      ],
      "payable": false,
      "stateMutability": "view",
      "type": "function"
    },
    {
      "constant": true,
      "inputs": [],
      "name": "totalSupply",
      "outputs": [
        {
          "internalType": "uint256",
          "name": "",
          "type": "uint256"
        }
      ],
      "payable": false,
      "stateMutability": "view",
      "type": "function"
    },
    {
      "constant": true,
      "inputs": [
        {
          "internalType": "address",
          "name": "owner",
          "type": "address"
        }
      ],
      "name": "balanceOf",
      "outputs": [
        {
          "internalType": "uint256",
          "name": "balance",
          "type": "uint256"
        }
      ],
      "payable": false,
      "stateMutability": "view",
      "type": "function"
    }
  ],
  "bytecode": "0x60806040526000600155336000806101000a81548173ffffffffffffffffffffffffffffffffffffffff021916908373ffffffffffffffffffffffffffffffffffffffff16021790555061022a806100586000396000f3fe608060405234801561001057600080fd5b506004361061004c5760003560e01c806318160ddd1461005157806327e235e31461006f57806370a08231146100c75780638da5cb5b1461011f575b600080fd5b610059610169565b6040518082815260200191505060405180910390f35b6100b16004803603602081101561008557600080fd5b81019080803573ffffffffffffffffffffffffffffffffffffffff16906020019092919050505061016f565b6040518082815260200191505060405180910390f35b610109600480360360208110156100dd57600080fd5b81019080803573ffffffffffffffffffffffffffffffffffffffff169060200190929190505050610187565b6040518082815260200191505060405180910390f35b6101276101d0565b604051808273ffffffffffffffffffffffffffffffffffffffff1673ffffffffffffffffffffffffffffffffffffffff16815260200191505060405180910390f35b60015481565b60026020528060005260406000206000915090505481565b6000600260008373ffffffffffffffffffffffffffffffffffffffff1673ffffffffffffffffffffffffffffffffffffffff168152602001908152602001600020549050919050565b6000809054906101000a900473ffffffffffffffffffffffffffffffffffffffff168156fea265627a7a7231582045c2b484dfb2b19cc7d2a07272aec7be7de8a5ae3f5d60c73222418c3eb1d33164736f6c63430005100032",
  "source": "pragma solidity >=0.5.0 <0.6.0;\r\n\r\n//Подключение файлов\r\nimport \"./SafeMath.sol\";\r\nimport \"./Ownable.sol\";\r\n\r\n//Контракт для баллов\r\ncontract Balls is Ownable{\r\n    using SafeMath for uint256;\r\n    \r\n    //Общее кол-во баллов в системе\r\n    uint public totalSupply = 0;\r\n    \r\n    //Переменная для хранения кол-во учебных баллов у определенного студента\r\n    mapping(address => uint) public  balances;\r\n    \r\n    //Переменная для хранения суммы баллов\r\n    uint internal results;\r\n\r\n    //Функция вывода кол-ва баллов у оперделенного студента\r\n    function balanceOf(address owner) external view returns (uint balance) {\r\n        return balances[owner];\r\n    }\r\n    \r\n    //Функция передачи баллов оперделенному студенту\r\n    function transferBalls(address to, uint value) internal returns (bool success) {\r\n        if (balances[owner] >= value && to != owner){\r\n            balances[owner] -= value; \r\n            balances[to] = value;\r\n            emit TransferBall(owner, to, value);\r\n            return true;\r\n        } else {\r\n            return false;\r\n        }\r\n       \r\n    }\r\n    \r\n    //Событие передачи баллов оперделенному студенту\r\n    event TransferBall(address indexed _from, address indexed _to, uint _value);\r\n    \r\n}",
  "sourcePath": "C:\\Users\\Кирилл\\Desktop\\проект\\contracts\\Balls.sol",
  "compiler": {
    "name": "solc",
    "version": "0.5.16+commit.9c3226ce.Emscripten.clang"
  },
  "schemaVersion": "3.1.0",
  "updatedAt": "2020-05-14T14:08:16.173Z",
  "devdoc": {
    "methods": {}
  },
  "userdoc": {
    "methods": {}
  }
}