{
  "contractName": "Diplom",
  "abi": [
    {
      "anonymous": false,
      "inputs": [
        {
          "indexed": true,
          "internalType": "address",
          "name": "_from",
          "type": "address"
        },
        {
          "indexed": false,
          "internalType": "uint256",
          "name": "tokenId",
          "type": "uint256"
        }
      ],
      "name": "SetDiploms",
      "type": "event"
    },
    {
      "anonymous": false,
      "inputs": [
        {
          "indexed": true,
          "internalType": "address",
          "name": "_from",
          "type": "address"
        },
        {
          "indexed": true,
          "internalType": "address",
          "name": "to",
          "type": "address"
        },
        {
          "indexed": false,
          "internalType": "uint256",
          "name": "tokenId",
          "type": "uint256"
        }
      ],
      "name": "TransferDip",
      "type": "event"
    },
    {
      "constant": true,
      "inputs": [],
      "name": "owner",
      "outputs": [
        {
          "internalType": "address",
          "name": "",
          "type": "address"
        }
      ],
      "payable": false,
      "stateMutability": "view",
      "type": "function"
    },
    {
      "constant": true,
      "inputs": [
        {
          "internalType": "address",
          "name": "owner",
          "type": "address"
        }
      ],
      "name": "balanceOf",
      "outputs": [
        {
          "internalType": "uint256",
          "name": "",
          "type": "uint256"
        }
      ],
      "payable": false,
      "stateMutability": "view",
      "type": "function"
    },
    {
      "constant": true,
      "inputs": [
        {
          "internalType": "uint256",
          "name": "tokenId",
          "type": "uint256"
        }
      ],
      "name": "ownerOf",
      "outputs": [
        {
          "internalType": "address",
          "name": "",
          "type": "address"
        }
      ],
      "payable": false,
      "stateMutability": "view",
      "type": "function"
    },
    {
      "constant": false,
      "inputs": [
        {
          "internalType": "uint256",
          "name": "tokenId",
          "type": "uint256"
        }
      ],
      "name": "setDiploms",
      "outputs": [],
      "payable": false,
      "stateMutability": "nonpayable",
      "type": "function"
    }
  ],
  "bytecode": "0x6080604052336000806101000a81548173ffffffffffffffffffffffffffffffffffffffff021916908373ffffffffffffffffffffffffffffffffffffffff160217905550610541806100536000396000f3fe608060405234801561001057600080fd5b506004361061004c5760003560e01c80636352211e1461005157806370a08231146100bf5780638da5cb5b14610117578063a06e5e0b14610161575b600080fd5b61007d6004803603602081101561006757600080fd5b810190808035906020019092919050505061018f565b604051808273ffffffffffffffffffffffffffffffffffffffff1673ffffffffffffffffffffffffffffffffffffffff16815260200191505060405180910390f35b610101600480360360208110156100d557600080fd5b81019080803573ffffffffffffffffffffffffffffffffffffffff1690602001909291905050506101cc565b6040518082815260200191505060405180910390f35b61011f610215565b604051808273ffffffffffffffffffffffffffffffffffffffff1673ffffffffffffffffffffffffffffffffffffffff16815260200191505060405180910390f35b61018d6004803603602081101561017757600080fd5b810190808035906020019092919050505061023a565b005b60006002600083815260200190815260200160002060009054906101000a900473ffffffffffffffffffffffffffffffffffffffff169050919050565b6000600160008373ffffffffffffffffffffffffffffffffffffffff1673ffffffffffffffffffffffffffffffffffffffff168152602001908152602001600020549050919050565b6000809054906101000a900473ffffffffffffffffffffffffffffffffffffffff1681565b6000809054906101000a900473ffffffffffffffffffffffffffffffffffffffff1673ffffffffffffffffffffffffffffffffffffffff163373ffffffffffffffffffffffffffffffffffffffff161461029357600080fd5b600360405180604001604052808381526020016000809054906101000a900473ffffffffffffffffffffffffffffffffffffffff1673ffffffffffffffffffffffffffffffffffffffff16815250908060018154018082558091505090600182039060005260206000209060020201600090919290919091506000820151816000015560208201518160010160006101000a81548173ffffffffffffffffffffffffffffffffffffffff021916908373ffffffffffffffffffffffffffffffffffffffff1602179055505050506000809054906101000a900473ffffffffffffffffffffffffffffffffffffffff166002600083815260200190815260200160002060006101000a81548173ffffffffffffffffffffffffffffffffffffffff021916908373ffffffffffffffffffffffffffffffffffffffff16021790555060018060008060009054906101000a900473ffffffffffffffffffffffffffffffffffffffff1673ffffffffffffffffffffffffffffffffffffffff1673ffffffffffffffffffffffffffffffffffffffff1681526020019081526020016000205401600160008060009054906101000a900473ffffffffffffffffffffffffffffffffffffffff1673ffffffffffffffffffffffffffffffffffffffff1673ffffffffffffffffffffffffffffffffffffffff168152602001908152602001600020819055506000809054906101000a900473ffffffffffffffffffffffffffffffffffffffff1673ffffffffffffffffffffffffffffffffffffffff167f44bc787d4da3c217d94de6de0969d848ecd5ad55ec8efb7551ce46519c90c48d826040518082815260200191505060405180910390a25056fea265627a7a723158202a3a243bd21bfbc3fb2c91ef754bc15e43cbf07688a54c2e091de6e464f3401c64736f6c63430005100032",
  "source": "pragma solidity >=0.5.0 <0.6.0;\r\n\r\nimport \"./Ownable.sol\";\r\nimport \"./SafeMath.sol\";\r\n\r\n//Контракт для обозначения уникального диплома или грамоты\r\ncontract Diplom is Ownable{\r\n    using SafeMath for uint256;\r\n    \r\n    //Переменная для хранения кол-ва дипломов у оперделенного студента\r\n    mapping(address => uint) OwnerDiplomsCount;\r\n    \r\n    //Переменная проверки наличия диплома у оперделенного студента\r\n    mapping(uint => address) DiplomsToOwner;\r\n    \r\n    //Структура диплома\r\n    struct diplom {\r\n        \r\n        //Уникальный номер\r\n        uint number;\r\n        \r\n        //Владелец\r\n        address owner;\r\n    }\r\n    \r\n    //Массив дипломов для хранения\r\n    diplom [] diploms;\r\n    \r\n    //Функция вывода кол-ва дипломов у оперделенного студента\r\n    function balanceOf(address owner) external view returns (uint) {\r\n        return OwnerDiplomsCount[owner];\r\n    }\r\n    \r\n    //Функция вывода владельца диплома по уникальному номеру \r\n    function ownerOf(uint tokenId) external view returns (address) {\r\n        return DiplomsToOwner[tokenId];\r\n    }\r\n    \r\n    //Функция передачи диплома оперделенному студенту\r\n    function transferDiplom(address to, uint tokenId) internal {\r\n        OwnerDiplomsCount[to] = OwnerDiplomsCount[to]+1;\r\n        OwnerDiplomsCount[msg.sender] = OwnerDiplomsCount[msg.sender]-1;\r\n        DiplomsToOwner[tokenId] = to;\r\n        emit TransferDip(msg.sender, to, tokenId);\r\n    }\r\n    \r\n    //Функция занесения дипломов \r\n    function setDiploms(uint tokenId) onlyOwner public {\r\n        diploms.push(diplom(tokenId, owner));\r\n        DiplomsToOwner[tokenId] = owner;\r\n        OwnerDiplomsCount[owner] = OwnerDiplomsCount[owner]+1;\r\n        emit SetDiploms(owner, tokenId);\r\n    }\r\n  \r\n    //Событие отправки диплома\r\n    event TransferDip(address indexed _from, address indexed to, uint tokenId);\r\n    \r\n    //Событие занесение диплома\r\n    event SetDiploms(address indexed _from, uint tokenId);\r\n}",
  "sourcePath": "C:\\Users\\Кирилл\\Desktop\\проект\\contracts\\Diplom.sol",
  "compiler": {
    "name": "solc",
    "version": "0.5.16+commit.9c3226ce.Emscripten.clang"
  },
  "schemaVersion": "3.1.0",
  "updatedAt": "2020-05-14T14:08:16.257Z",
  "devdoc": {
    "methods": {}
  },
  "userdoc": {
    "methods": {}
  }
}