{
  "contractName": "Ownable",
  "abi": [
    {
      "inputs": [],
      "payable": false,
      "stateMutability": "nonpayable",
      "type": "constructor"
    },
    {
      "constant": true,
      "inputs": [],
      "name": "owner",
      "outputs": [
        {
          "internalType": "address",
          "name": "",
          "type": "address"
        }
      ],
      "payable": false,
      "stateMutability": "view",
      "type": "function"
    }
  ],
  "bytecode": "0x608060405234801561001057600080fd5b50336000806101000a81548173ffffffffffffffffffffffffffffffffffffffff021916908373ffffffffffffffffffffffffffffffffffffffff16021790555060cf8061005f6000396000f3fe6080604052348015600f57600080fd5b506004361060285760003560e01c80638da5cb5b14602d575b600080fd5b60336075565b604051808273ffffffffffffffffffffffffffffffffffffffff1673ffffffffffffffffffffffffffffffffffffffff16815260200191505060405180910390f35b6000809054906101000a900473ffffffffffffffffffffffffffffffffffffffff168156fea265627a7a72315820d6f8c5ce0185a504e8b8fe975ef53112e50138bdc8c2eb3ff5251f2f709b391b64736f6c63430005100032",
  "source": "pragma solidity >=0.4.20;\r\n\r\n//Контракт для обозначения создателя(администратора) и студентов\r\ncontract Ownable {\r\n    \r\n    //Адрес создателя\r\n    address public owner;\r\n   \r\n    //Конструктор контракта присваивающий адрес создателя\r\n    constructor() public {\r\n        owner = msg.sender;\r\n    }\r\n  \r\n    //Модификатор доступа (только для создателя)\r\n    modifier onlyOwner() {\r\n        require(msg.sender == owner);\r\n        _;\r\n    }\r\n   \r\n   //Модификатор доступа для всех, кроме создателя \r\n    modifier dontOwner(){\r\n        require(msg.sender != owner);\r\n        _;\r\n    }\r\n\r\n}",
  "sourcePath": "C:\\Users\\Кирилл\\Desktop\\проект\\contracts\\Ownable.sol",
  "compiler": {
    "name": "solc",
    "version": "0.5.16+commit.9c3226ce.Emscripten.clang"
  },
  "schemaVersion": "3.1.0",
  "updatedAt": "2020-05-14T14:08:16.499Z",
  "devdoc": {
    "methods": {}
  },
  "userdoc": {
    "methods": {}
  }
}